{
  "_format": "hh-sol-artifact-1",
  "contractName": "TipJar",
  "sourceName": "contracts/TipJar.sol",
  "abi": [
    {
      "inputs": [],
      "stateMutability": "nonpayable",
      "type": "constructor"
    },
    {
      "anonymous": false,
      "inputs": [
        {
          "indexed": true,
          "internalType": "address",
          "name": "from",
          "type": "address"
        },
        {
          "indexed": false,
          "internalType": "uint256",
          "name": "amount",
          "type": "uint256"
        },
        {
          "indexed": false,
          "internalType": "string",
          "name": "message",
          "type": "string"
        }
      ],
      "name": "NewTip",
      "type": "event"
    },
    {
      "anonymous": false,
      "inputs": [
        {
          "indexed": true,
          "internalType": "address",
          "name": "oldOwner",
          "type": "address"
        },
        {
          "indexed": true,
          "internalType": "address",
          "name": "newOwner",
          "type": "address"
        }
      ],
      "name": "OwnerSet",
      "type": "event"
    },
    {
      "inputs": [
        {
          "internalType": "address",
          "name": "_addr",
          "type": "address"
        }
      ],
      "name": "getTipsByAddress",
      "outputs": [
        {
          "components": [
            {
              "internalType": "string",
              "name": "message",
              "type": "string"
            },
            {
              "internalType": "uint256",
              "name": "amount",
              "type": "uint256"
            },
            {
              "internalType": "uint256",
              "name": "timestamp",
              "type": "uint256"
            }
          ],
          "internalType": "struct TipJar.Tip[]",
          "name": "",
          "type": "tuple[]"
        }
      ],
      "stateMutability": "view",
      "type": "function"
    },
    {
      "inputs": [],
      "name": "owner",
      "outputs": [
        {
          "internalType": "address",
          "name": "",
          "type": "address"
        }
      ],
      "stateMutability": "view",
      "type": "function"
    },
    {
      "inputs": [
        {
          "internalType": "string",
          "name": "_message",
          "type": "string"
        }
      ],
      "name": "tip",
      "outputs": [],
      "stateMutability": "payable",
      "type": "function"
    },
    {
      "inputs": [
        {
          "internalType": "address",
          "name": "",
          "type": "address"
        },
        {
          "internalType": "uint256",
          "name": "",
          "type": "uint256"
        }
      ],
      "name": "tipsByAddress",
      "outputs": [
        {
          "internalType": "string",
          "name": "message",
          "type": "string"
        },
        {
          "internalType": "uint256",
          "name": "amount",
          "type": "uint256"
        },
        {
          "internalType": "uint256",
          "name": "timestamp",
          "type": "uint256"
        }
      ],
      "stateMutability": "view",
      "type": "function"
    },
    {
      "inputs": [],
      "name": "withdraw",
      "outputs": [],
      "stateMutability": "nonpayable",
      "type": "function"
    }
  ],
  "bytecode": "0x6080604052348015600f57600080fd5b50336000806101000a81548173ffffffffffffffffffffffffffffffffffffffff021916908373ffffffffffffffffffffffffffffffffffffffff1602179055503373ffffffffffffffffffffffffffffffffffffffff16600073ffffffffffffffffffffffffffffffffffffffff167f342827c97908e5e2f71151c08502a66d44b6f758e3ac2f1de95f02eb95f0a73560405160405180910390a3611005806100ba6000396000f3fe60806040526004361061004a5760003560e01c80633ccfd60b1461004f57806345d60823146100665780636657d3eb146100a35780638da5cb5b146100e2578063cb56393c1461010d575b600080fd5b34801561005b57600080fd5b50610064610129565b005b34801561007257600080fd5b5061008d600480360381019061008891906106a2565b6102ae565b60405161009a919061088a565b60405180910390f35b3480156100af57600080fd5b506100ca60048036038101906100c591906108d8565b6103f2565b6040516100d993929190610971565b60405180910390f35b3480156100ee57600080fd5b506100f76104c1565b60405161010491906109be565b60405180910390f35b61012760048036038101906101229190610b0e565b6104e5565b005b60008054906101000a900473ffffffffffffffffffffffffffffffffffffffff1673ffffffffffffffffffffffffffffffffffffffff163373ffffffffffffffffffffffffffffffffffffffff16146101b7576040517f08c379a00000000000000000000000000000000000000000000000000000000081526004016101ae90610bc9565b60405180910390fd5b60008054906101000a900473ffffffffffffffffffffffffffffffffffffffff1673ffffffffffffffffffffffffffffffffffffffff163373ffffffffffffffffffffffffffffffffffffffff1614610245576040517f08c379a000000000000000000000000000000000000000000000000000000000815260040161023c90610c35565b60405180910390fd5b60008054906101000a900473ffffffffffffffffffffffffffffffffffffffff1673ffffffffffffffffffffffffffffffffffffffff166108fc479081150290604051600060405180830381858888f193505050501580156102ab573d6000803e3d6000fd5b50565b6060600160008373ffffffffffffffffffffffffffffffffffffffff1673ffffffffffffffffffffffffffffffffffffffff168152602001908152602001600020805480602002602001604051908101604052809291908181526020016000905b828210156103e7578382906000526020600020906003020160405180606001604052908160008201805461034290610c84565b80601f016020809104026020016040519081016040528092919081815260200182805461036e90610c84565b80156103bb5780601f10610390576101008083540402835291602001916103bb565b820191906000526020600020905b81548152906001019060200180831161039e57829003601f168201915b50505050508152602001600182015481526020016002820154815250508152602001906001019061030f565b505050509050919050565b6001602052816000526040600020818154811061040e57600080fd5b90600052602060002090600302016000915091505080600001805461043290610c84565b80601f016020809104026020016040519081016040528092919081815260200182805461045e90610c84565b80156104ab5780601f10610480576101008083540402835291602001916104ab565b820191906000526020600020905b81548152906001019060200180831161048e57829003601f168201915b5050505050908060010154908060020154905083565b60008054906101000a900473ffffffffffffffffffffffffffffffffffffffff1681565b60003411610528576040517f08c379a000000000000000000000000000000000000000000000000000000000815260040161051f90610d01565b60405180910390fd5b60006040518060600160405280838152602001348152602001428152509050600160003373ffffffffffffffffffffffffffffffffffffffff1673ffffffffffffffffffffffffffffffffffffffff16815260200190815260200160002081908060018154018082558091505060019003906000526020600020906003020160009091909190915060008201518160000190816105c59190610ecd565b50602082015181600101556040820151816002015550503373ffffffffffffffffffffffffffffffffffffffff167f2edbe3c16cfdf7d59d3418a7bebc467863d7aee89bc4da07262936cf15fb49713484604051610624929190610f9f565b60405180910390a25050565b6000604051905090565b600080fd5b600080fd5b600073ffffffffffffffffffffffffffffffffffffffff82169050919050565b600061066f82610644565b9050919050565b61067f81610664565b811461068a57600080fd5b50565b60008135905061069c81610676565b92915050565b6000602082840312156106b8576106b761063a565b5b60006106c68482850161068d565b91505092915050565b600081519050919050565b600082825260208201905092915050565b6000819050602082019050919050565b600081519050919050565b600082825260208201905092915050565b60005b8381101561073557808201518184015260208101905061071a565b60008484015250505050565b6000601f19601f8301169050919050565b600061075d826106fb565b6107678185610706565b9350610777818560208601610717565b61078081610741565b840191505092915050565b6000819050919050565b61079e8161078b565b82525050565b600060608301600083015184820360008601526107c18282610752565b91505060208301516107d66020860182610795565b5060408301516107e96040860182610795565b508091505092915050565b600061080083836107a4565b905092915050565b6000602082019050919050565b6000610820826106cf565b61082a81856106da565b93508360208202850161083c856106eb565b8060005b85811015610878578484038952815161085985826107f4565b945061086483610808565b925060208a01995050600181019050610840565b50829750879550505050505092915050565b600060208201905081810360008301526108a48184610815565b905092915050565b6108b58161078b565b81146108c057600080fd5b50565b6000813590506108d2816108ac565b92915050565b600080604083850312156108ef576108ee61063a565b5b60006108fd8582860161068d565b925050602061090e858286016108c3565b9150509250929050565b600082825260208201905092915050565b6000610934826106fb565b61093e8185610918565b935061094e818560208601610717565b61095781610741565b840191505092915050565b61096b8161078b565b82525050565b6000606082019050818103600083015261098b8186610929565b905061099a6020830185610962565b6109a76040830184610962565b949350505050565b6109b881610664565b82525050565b60006020820190506109d360008301846109af565b92915050565b600080fd5b600080fd5b7f4e487b7100000000000000000000000000000000000000000000000000000000600052604160045260246000fd5b610a1b82610741565b810181811067ffffffffffffffff82111715610a3a57610a396109e3565b5b80604052505050565b6000610a4d610630565b9050610a598282610a12565b919050565b600067ffffffffffffffff821115610a7957610a786109e3565b5b610a8282610741565b9050602081019050919050565b82818337600083830152505050565b6000610ab1610aac84610a5e565b610a43565b905082815260208101848484011115610acd57610acc6109de565b5b610ad8848285610a8f565b509392505050565b600082601f830112610af557610af46109d9565b5b8135610b05848260208601610a9e565b91505092915050565b600060208284031215610b2457610b2361063a565b5b600082013567ffffffffffffffff811115610b4257610b4161063f565b5b610b4e84828501610ae0565b91505092915050565b7f4e6f7420417574686f72697a65643a20796f7520617265206e6f74207468652060008201527f6f776e6572000000000000000000000000000000000000000000000000000000602082015250565b6000610bb3602583610918565b9150610bbe82610b57565b604082019050919050565b60006020820190508181036000830152610be281610ba6565b9050919050565b7f596f75206172656e277420746865206f776e6572000000000000000000000000600082015250565b6000610c1f601483610918565b9150610c2a82610be9565b602082019050919050565b60006020820190508181036000830152610c4e81610c12565b9050919050565b7f4e487b7100000000000000000000000000000000000000000000000000000000600052602260045260246000fd5b60006002820490506001821680610c9c57607f821691505b602082108103610caf57610cae610c55565b5b50919050565b7f546970206d7573742062652067726561746572207468616e207a65726f000000600082015250565b6000610ceb601d83610918565b9150610cf682610cb5565b602082019050919050565b60006020820190508181036000830152610d1a81610cde565b9050919050565b60008190508160005260206000209050919050565b60006020601f8301049050919050565b600082821b905092915050565b600060088302610d837fffffffffffffffffffffffffffffffffffffffffffffffffffffffffffffffff82610d46565b610d8d8683610d46565b95508019841693508086168417925050509392505050565b6000819050919050565b6000610dca610dc5610dc08461078b565b610da5565b61078b565b9050919050565b6000819050919050565b610de483610daf565b610df8610df082610dd1565b848454610d53565b825550505050565b600090565b610e0d610e00565b610e18818484610ddb565b505050565b5b81811015610e3c57610e31600082610e05565b600181019050610e1e565b5050565b601f821115610e8157610e5281610d21565b610e5b84610d36565b81016020851015610e6a578190505b610e7e610e7685610d36565b830182610e1d565b50505b505050565b600082821c905092915050565b6000610ea460001984600802610e86565b1980831691505092915050565b6000610ebd8383610e93565b9150826002028217905092915050565b610ed6826106fb565b67ffffffffffffffff811115610eef57610eee6109e3565b5b610ef98254610c84565b610f04828285610e40565b600060209050601f831160018114610f375760008415610f25578287015190505b610f2f8582610eb1565b865550610f97565b601f198416610f4586610d21565b60005b82811015610f6d57848901518255600182019150602085019450602081019050610f48565b86831015610f8a5784890151610f86601f891682610e93565b8355505b6001600288020188555050505b505050505050565b6000604082019050610fb46000830185610962565b8181036020830152610fc68184610929565b9050939250505056fea2646970667358221220a192743a5435192ce2904dc79af6ada200ca5a32099ee22b39592db3b99a5b3a64736f6c634300081c0033",
  "linkReferences": {},
  "deployedLinkReferences": {}
}